{
  "contractName": "IoTQuantumZKPStorage",
  "abi": [
    {
      "inputs": [],
      "name": "DataAlreadyExists",
      "type": "error"
    },
    {
      "inputs": [],
      "name": "DataNotFound",
      "type": "error"
    },
    {
      "inputs": [],
      "name": "DeviceAlreadyRegistered",
      "type": "error"
    },
    {
      "inputs": [],
      "name": "DeviceNotRegistered",
      "type": "error"
    },
    {
      "inputs": [],
      "name": "InvalidDataHash",
      "type": "error"
    },
    {
      "inputs": [],
      "name": "InvalidDeviceSignature",
      "type": "error"
    },
    {
      "inputs": [],
      "name": "InvalidProof",
      "type": "error"
    },
    {
      "inputs": [],
      "name": "InvalidSchnorrParameters",
      "type": "error"
    },
    {
      "inputs": [],
      "name": "InvalidThreshold",
      "type": "error"
    },
    {
      "inputs": [],
      "name": "ProofVerificationFailed",
      "type": "error"
    },
    {
      "inputs": [],
      "name": "UnauthorizedAccess",
      "type": "error"
    },
    {
      "anonymous": false,
      "inputs": [
        {
          "indexed": true,
          "internalType": "bytes32",
          "name": "batchId",
          "type": "bytes32"
        },
        {
          "indexed": true,
          "internalType": "bytes32",
          "name": "deviceId",
          "type": "bytes32"
        },
        {
          "indexed": false,
          "internalType": "uint256",
          "name": "count",
          "type": "uint256"
        },
        {
          "indexed": false,
          "internalType": "uint256",
          "name": "timestamp",
          "type": "uint256"
        }
      ],
      "name": "BatchProcessed",
      "type": "event"
    },
    {
      "anonymous": false,
      "inputs": [
        {
          "indexed": true,
          "internalType": "bytes32",
          "name": "dataId",
          "type": "bytes32"
        },
        {
          "indexed": true,
          "internalType": "bytes32",
          "name": "deviceId",
          "type": "bytes32"
        },
        {
          "indexed": true,
          "internalType": "address",
          "name": "owner",
          "type": "address"
        },
        {
          "indexed": false,
          "internalType": "uint256",
          "name": "timestamp",
          "type": "uint256"
        },
        {
          "indexed": false,
          "internalType": "bytes32",
          "name": "dataHash",
          "type": "bytes32"
        }
      ],
      "name": "DataStored",
      "type": "event"
    },
    {
      "anonymous": false,
      "inputs": [
        {
          "indexed": true,
          "internalType": "bytes32",
          "name": "deviceId",
          "type": "bytes32"
        },
        {
          "indexed": false,
          "internalType": "uint256",
          "name": "timestamp",
          "type": "uint256"
        }
      ],
      "name": "DeviceDeactivated",
      "type": "event"
    },
    {
      "anonymous": false,
      "inputs": [
        {
          "indexed": true,
          "internalType": "bytes32",
          "name": "deviceId",
          "type": "bytes32"
        },
        {
          "indexed": true,
          "internalType": "address",
          "name": "owner",
          "type": "address"
        },
        {
          "indexed": false,
          "internalType": "uint256",
          "name": "publicKey",
          "type": "uint256"
        },
        {
          "indexed": false,
          "internalType": "uint256",
          "name": "timestamp",
          "type": "uint256"
        }
      ],
      "name": "DeviceRegistered",
      "type": "event"
    },
    {
      "anonymous": false,
      "inputs": [
        {
          "indexed": true,
          "internalType": "bytes32",
          "name": "deviceId",
          "type": "bytes32"
        },
        {
          "indexed": false,
          "internalType": "uint256",
          "name": "oldScore",
          "type": "uint256"
        },
        {
          "indexed": false,
          "internalType": "uint256",
          "name": "newScore",
          "type": "uint256"
        },
        {
          "indexed": false,
          "internalType": "uint256",
          "name": "timestamp",
          "type": "uint256"
        }
      ],
      "name": "DeviceTrustScoreUpdated",
      "type": "event"
    },
    {
      "anonymous": false,
      "inputs": [
        {
          "indexed": true,
          "internalType": "address",
          "name": "previousOwner",
          "type": "address"
        },
        {
          "indexed": true,
          "internalType": "address",
          "name": "newOwner",
          "type": "address"
        }
      ],
      "name": "OwnershipTransferred",
      "type": "event"
    },
    {
      "anonymous": false,
      "inputs": [
        {
          "indexed": false,
          "internalType": "address",
          "name": "account",
          "type": "address"
        }
      ],
      "name": "Paused",
      "type": "event"
    },
    {
      "anonymous": false,
      "inputs": [
        {
          "indexed": true,
          "internalType": "bytes32",
          "name": "deviceId",
          "type": "bytes32"
        },
        {
          "indexed": true,
          "internalType": "bytes32",
          "name": "proofId",
          "type": "bytes32"
        },
        {
          "indexed": false,
          "internalType": "uint256",
          "name": "commitment",
          "type": "uint256"
        },
        {
          "indexed": false,
          "internalType": "uint256",
          "name": "timestamp",
          "type": "uint256"
        }
      ],
      "name": "ProofSubmitted",
      "type": "event"
    },
    {
      "anonymous": false,
      "inputs": [
        {
          "indexed": true,
          "internalType": "bytes32",
          "name": "deviceId",
          "type": "bytes32"
        },
        {
          "indexed": true,
          "internalType": "bytes32",
          "name": "proofId",
          "type": "bytes32"
        },
        {
          "indexed": false,
          "internalType": "bool",
          "name": "success",
          "type": "bool"
        },
        {
          "indexed": false,
          "internalType": "uint256",
          "name": "timestamp",
          "type": "uint256"
        }
      ],
      "name": "ProofVerified",
      "type": "event"
    },
    {
      "anonymous": false,
      "inputs": [
        {
          "indexed": false,
          "internalType": "address",
          "name": "account",
          "type": "address"
        }
      ],
      "name": "Unpaused",
      "type": "event"
    },
    {
      "inputs": [],
      "name": "BATCH_SIZE_LIMIT",
      "outputs": [
        {
          "internalType": "uint256",
          "name": "",
          "type": "uint256"
        }
      ],
      "stateMutability": "view",
      "type": "function",
      "constant": true
    },
    {
      "inputs": [],
      "name": "DEFAULT_ACCESS_LEVEL",
      "outputs": [
        {
          "internalType": "uint256",
          "name": "",
          "type": "uint256"
        }
      ],
      "stateMutability": "view",
      "type": "function",
      "constant": true
    },
    {
      "inputs": [],
      "name": "MAX_TRUST_SCORE",
      "outputs": [
        {
          "internalType": "uint256",
          "name": "",
          "type": "uint256"
        }
      ],
      "stateMutability": "view",
      "type": "function",
      "constant": true
    },
    {
      "inputs": [],
      "name": "MIN_TRUST_SCORE",
      "outputs": [
        {
          "internalType": "uint256",
          "name": "",
          "type": "uint256"
        }
      ],
      "stateMutability": "view",
      "type": "function",
      "constant": true
    },
    {
      "inputs": [
        {
          "internalType": "bytes32",
          "name": "",
          "type": "bytes32"
        }
      ],
      "name": "dataBatches",
      "outputs": [
        {
          "internalType": "uint256",
          "name": "timestamp",
          "type": "uint256"
        },
        {
          "internalType": "bytes32",
          "name": "batchId",
          "type": "bytes32"
        },
        {
          "internalType": "bytes32",
          "name": "deviceId",
          "type": "bytes32"
        },
        {
          "internalType": "bool",
          "name": "processed",
          "type": "bool"
        }
      ],
      "stateMutability": "view",
      "type": "function",
      "constant": true
    },
    {
      "inputs": [
        {
          "internalType": "bytes32",
          "name": "",
          "type": "bytes32"
        },
        {
          "internalType": "uint256",
          "name": "",
          "type": "uint256"
        }
      ],
      "name": "deviceDataHistory",
      "outputs": [
        {
          "internalType": "bytes32",
          "name": "",
          "type": "bytes32"
        }
      ],
      "stateMutability": "view",
      "type": "function",
      "constant": true
    },
    {
      "inputs": [
        {
          "internalType": "bytes32",
          "name": "",
          "type": "bytes32"
        }
      ],
      "name": "devices",
      "outputs": [
        {
          "internalType": "bytes32",
          "name": "deviceId",
          "type": "bytes32"
        },
        {
          "internalType": "address",
          "name": "owner",
          "type": "address"
        },
        {
          "internalType": "uint256",
          "name": "registrationTime",
          "type": "uint256"
        },
        {
          "internalType": "bool",
          "name": "isActive",
          "type": "bool"
        },
        {
          "internalType": "uint256",
          "name": "dataCount",
          "type": "uint256"
        },
        {
          "internalType": "uint256",
          "name": "trustScore",
          "type": "uint256"
        },
        {
          "internalType": "string",
          "name": "metadata",
          "type": "string"
        },
        {
          "internalType": "enum IoTQuantumZKPStorage.DeviceType",
          "name": "deviceType",
          "type": "uint8"
        },
        {
          "internalType": "uint256",
          "name": "publicKey",
          "type": "uint256"
        },
        {
          "internalType": "uint256",
          "name": "accessLevel",
          "type": "uint256"
        }
      ],
      "stateMutability": "view",
      "type": "function",
      "constant": true
    },
    {
      "inputs": [],
      "name": "owner",
      "outputs": [
        {
          "internalType": "address",
          "name": "",
          "type": "address"
        }
      ],
      "stateMutability": "view",
      "type": "function",
      "constant": true
    },
    {
      "inputs": [],
      "name": "paused",
      "outputs": [
        {
          "internalType": "bool",
          "name": "",
          "type": "bool"
        }
      ],
      "stateMutability": "view",
      "type": "function",
      "constant": true
    },
    {
      "inputs": [],
      "name": "renounceOwnership",
      "outputs": [],
      "stateMutability": "nonpayable",
      "type": "function"
    },
    {
      "inputs": [],
      "name": "schnorrParams",
      "outputs": [
        {
          "internalType": "uint256",
          "name": "p",
          "type": "uint256"
        },
        {
          "internalType": "uint256",
          "name": "q",
          "type": "uint256"
        },
        {
          "internalType": "uint256",
          "name": "g",
          "type": "uint256"
        },
        {
          "internalType": "bool",
          "name": "isInitialized",
          "type": "bool"
        }
      ],
      "stateMutability": "view",
      "type": "function",
      "constant": true
    },
    {
      "inputs": [
        {
          "internalType": "address",
          "name": "newOwner",
          "type": "address"
        }
      ],
      "name": "transferOwnership",
      "outputs": [],
      "stateMutability": "nonpayable",
      "type": "function"
    },
    {
      "inputs": [
        {
          "internalType": "address",
          "name": "",
          "type": "address"
        }
      ],
      "name": "userTrustScores",
      "outputs": [
        {
          "internalType": "uint256",
          "name": "",
          "type": "uint256"
        }
      ],
      "stateMutability": "view",
      "type": "function",
      "constant": true
    },
    {
      "inputs": [
        {
          "internalType": "uint256",
          "name": "p",
          "type": "uint256"
        },
        {
          "internalType": "uint256",
          "name": "q",
          "type": "uint256"
        },
        {
          "internalType": "uint256",
          "name": "g",
          "type": "uint256"
        }
      ],
      "name": "initializeSchnorrParams",
      "outputs": [],
      "stateMutability": "nonpayable",
      "type": "function"
    },
    {
      "inputs": [
        {
          "internalType": "bytes32",
          "name": "deviceId",
          "type": "bytes32"
        },
        {
          "internalType": "enum IoTQuantumZKPStorage.DeviceType",
          "name": "deviceType",
          "type": "uint8"
        },
        {
          "internalType": "uint256",
          "name": "publicKey",
          "type": "uint256"
        },
        {
          "internalType": "string",
          "name": "metadata",
          "type": "string"
        }
      ],
      "name": "registerDevice",
      "outputs": [],
      "stateMutability": "nonpayable",
      "type": "function"
    },
    {
      "inputs": [
        {
          "internalType": "bytes32",
          "name": "deviceId",
          "type": "bytes32"
        },
        {
          "internalType": "bytes32",
          "name": "dataId",
          "type": "bytes32"
        },
        {
          "internalType": "bytes32",
          "name": "dataHash",
          "type": "bytes32"
        },
        {
          "internalType": "bytes32",
          "name": "proof",
          "type": "bytes32"
        },
        {
          "internalType": "enum IoTQuantumZKPStorage.DataType",
          "name": "dataType",
          "type": "uint8"
        }
      ],
      "name": "storeIoTData",
      "outputs": [],
      "stateMutability": "nonpayable",
      "type": "function"
    },
    {
      "inputs": [
        {
          "internalType": "bytes32",
          "name": "deviceId",
          "type": "bytes32"
        },
        {
          "internalType": "uint256",
          "name": "commitment",
          "type": "uint256"
        },
        {
          "internalType": "uint256",
          "name": "challenge",
          "type": "uint256"
        },
        {
          "internalType": "uint256",
          "name": "response",
          "type": "uint256"
        },
        {
          "internalType": "bytes32",
          "name": "messageHash",
          "type": "bytes32"
        }
      ],
      "name": "submitProof",
      "outputs": [],
      "stateMutability": "nonpayable",
      "type": "function"
    },
    {
      "inputs": [
        {
          "internalType": "bytes32",
          "name": "deviceId",
          "type": "bytes32"
        },
        {
          "internalType": "bytes32",
          "name": "proofId",
          "type": "bytes32"
        }
      ],
      "name": "verifyProof",
      "outputs": [
        {
          "internalType": "bool",
          "name": "",
          "type": "bool"
        }
      ],
      "stateMutability": "nonpayable",
      "type": "function"
    },
    {
      "inputs": [
        {
          "internalType": "bytes32",
          "name": "deviceId",
          "type": "bytes32"
        },
        {
          "internalType": "bytes32",
          "name": "proofId",
          "type": "bytes32"
        }
      ],
      "name": "getProofDetails",
      "outputs": [
        {
          "internalType": "uint256",
          "name": "commitment",
          "type": "uint256"
        },
        {
          "internalType": "uint256",
          "name": "challenge",
          "type": "uint256"
        },
        {
          "internalType": "uint256",
          "name": "response",
          "type": "uint256"
        },
        {
          "internalType": "bytes32",
          "name": "messageHash",
          "type": "bytes32"
        },
        {
          "internalType": "bool",
          "name": "isVerified",
          "type": "bool"
        }
      ],
      "stateMutability": "view",
      "type": "function",
      "constant": true
    },
    {
      "inputs": [
        {
          "internalType": "bytes32",
          "name": "deviceId",
          "type": "bytes32"
        }
      ],
      "name": "getDeviceDetails",
      "outputs": [
        {
          "internalType": "address",
          "name": "owner",
          "type": "address"
        },
        {
          "internalType": "uint256",
          "name": "registrationTime",
          "type": "uint256"
        },
        {
          "internalType": "bool",
          "name": "isActive",
          "type": "bool"
        },
        {
          "internalType": "uint256",
          "name": "dataCount",
          "type": "uint256"
        },
        {
          "internalType": "uint256",
          "name": "trustScore",
          "type": "uint256"
        },
        {
          "internalType": "string",
          "name": "metadata",
          "type": "string"
        },
        {
          "internalType": "enum IoTQuantumZKPStorage.DeviceType",
          "name": "deviceType",
          "type": "uint8"
        },
        {
          "internalType": "uint256",
          "name": "publicKey",
          "type": "uint256"
        }
      ],
      "stateMutability": "view",
      "type": "function",
      "constant": true
    },
    {
      "inputs": [],
      "name": "pause",
      "outputs": [],
      "stateMutability": "nonpayable",
      "type": "function"
    },
    {
      "inputs": [
        {
          "internalType": "bytes32",
          "name": "deviceId",
          "type": "bytes32"
        },
        {
          "internalType": "bytes32[]",
          "name": "dataHashes",
          "type": "bytes32[]"
        },
        {
          "internalType": "bytes32[]",
          "name": "proofs",
          "type": "bytes32[]"
        },
        {
          "internalType": "enum IoTQuantumZKPStorage.DataType",
          "name": "dataType",
          "type": "uint8"
        }
      ],
      "name": "storeBatchData",
      "outputs": [],
      "stateMutability": "nonpayable",
      "type": "function"
    },
    {
      "inputs": [
        {
          "internalType": "bytes32",
          "name": "batchId",
          "type": "bytes32"
        }
      ],
      "name": "getBatchDetails",
      "outputs": [
        {
          "internalType": "bytes32[]",
          "name": "dataHashes",
          "type": "bytes32[]"
        },
        {
          "internalType": "uint256",
          "name": "timestamp",
          "type": "uint256"
        },
        {
          "internalType": "bytes32",
          "name": "deviceId",
          "type": "bytes32"
        },
        {
          "internalType": "bool",
          "name": "processed",
          "type": "bool"
        }
      ],
      "stateMutability": "view",
      "type": "function",
      "constant": true
    },
    {
      "inputs": [
        {
          "internalType": "bytes32",
          "name": "dataId",
          "type": "bytes32"
        },
        {
          "internalType": "address",
          "name": "user",
          "type": "address"
        }
      ],
      "name": "grantAccess",
      "outputs": [],
      "stateMutability": "nonpayable",
      "type": "function"
    },
    {
      "inputs": [
        {
          "internalType": "bytes32",
          "name": "dataId",
          "type": "bytes32"
        },
        {
          "internalType": "address",
          "name": "user",
          "type": "address"
        }
      ],
      "name": "revokeAccess",
      "outputs": [],
      "stateMutability": "nonpayable",
      "type": "function"
    },
    {
      "inputs": [
        {
          "internalType": "bytes32",
          "name": "dataId",
          "type": "bytes32"
        },
        {
          "internalType": "address",
          "name": "user",
          "type": "address"
        }
      ],
      "name": "hasAccess",
      "outputs": [
        {
          "internalType": "bool",
          "name": "",
          "type": "bool"
        }
      ],
      "stateMutability": "view",
      "type": "function",
      "constant": true
    },
    {
      "inputs": [
        {
          "internalType": "bytes32",
          "name": "dataId",
          "type": "bytes32"
        }
      ],
      "name": "getDataDetails",
      "outputs": [
        {
          "internalType": "bytes32",
          "name": "dataHash",
          "type": "bytes32"
        },
        {
          "internalType": "bytes32",
          "name": "zkProof",
          "type": "bytes32"
        },
        {
          "internalType": "address",
          "name": "owner",
          "type": "address"
        },
        {
          "internalType": "bytes32",
          "name": "deviceId",
          "type": "bytes32"
        },
        {
          "internalType": "uint256",
          "name": "timestamp",
          "type": "uint256"
        },
        {
          "internalType": "bool",
          "name": "isValid",
          "type": "bool"
        },
        {
          "internalType": "uint256",
          "name": "accessLevel",
          "type": "uint256"
        },
        {
          "internalType": "enum IoTQuantumZKPStorage.DataType",
          "name": "dataType",
          "type": "uint8"
        }
      ],
      "stateMutability": "view",
      "type": "function",
      "constant": true
    },
    {
      "inputs": [
        {
          "internalType": "address",
          "name": "user",
          "type": "address"
        }
      ],
      "name": "getUserTrustScore",
      "outputs": [
        {
          "internalType": "uint256",
          "name": "",
          "type": "uint256"
        }
      ],
      "stateMutability": "view",
      "type": "function",
      "constant": true
    },
    {
      "inputs": [
        {
          "internalType": "bytes32",
          "name": "deviceId",
          "type": "bytes32"
        },
        {
          "internalType": "uint256",
          "name": "accessLevel",
          "type": "uint256"
        }
      ],
      "name": "setDeviceAccessLevel",
      "outputs": [],
      "stateMutability": "nonpayable",
      "type": "function"
    },
    {
      "inputs": [
        {
          "internalType": "bytes32",
          "name": "deviceId",
          "type": "bytes32"
        },
        {
          "internalType": "string",
          "name": "newMetadata",
          "type": "string"
        }
      ],
      "name": "updateDeviceMetadata",
      "outputs": [],
      "stateMutability": "nonpayable",
      "type": "function"
    },
    {
      "inputs": [
        {
          "internalType": "bytes32",
          "name": "deviceId",
          "type": "bytes32"
        }
      ],
      "name": "activateDevice",
      "outputs": [],
      "stateMutability": "nonpayable",
      "type": "function"
    },
    {
      "inputs": [
        {
          "internalType": "bytes32",
          "name": "dataId",
          "type": "bytes32"
        }
      ],
      "name": "emergencyDeleteData",
      "outputs": [],
      "stateMutability": "nonpayable",
      "type": "function"
    },
    {
      "inputs": [],
      "name": "getTotalDevices",
      "outputs": [
        {
          "internalType": "uint256",
          "name": "",
          "type": "uint256"
        }
      ],
      "stateMutability": "view",
      "type": "function",
      "constant": true
    },
    {
      "inputs": [
        {
          "internalType": "bytes32",
          "name": "deviceId",
          "type": "bytes32"
        }
      ],
      "name": "getDeviceBatchCount",
      "outputs": [
        {
          "internalType": "uint256",
          "name": "",
          "type": "uint256"
        }
      ],
      "stateMutability": "view",
      "type": "function",
      "constant": true
    }
  ],
  "bytecode": "0x608060405234801561001057600080fd5b50600160005561001f33610031565b6001805460ff60a01b19169055610083565b600180546001600160a01b038381166001600160a01b0319831681179093556040519116919082907f8be0079c531659141344cd1fd0a4f28419497f9722a3daafe3b4186f6b6457e090600090a35050565b6123f8806100926000396000f3fe608060405234801561001057600080fd5b50600436106102065760003560e01c80638358efa71161011a578063b25ace94116100ad578063dc61d1611161007c578063dc61d1611461059a578063e984fadc146105a2578063f1ef5b72146105b5578063f2fde38b146105c8578063f8ef515f146105db57600080fd5b8063b25ace9414610463578063b52c310714610483578063c04a75b9146104f9578063c5c400de1461057157600080fd5b80638da5cb5b116100e95780638da5cb5b146103fc5780638e70ee4814610417578063ad59db651461037c578063b21a7b3e1461044057600080fd5b80638358efa7146103ab5780638456cb59146103ce57806386e1a1f4146103d65780638d53b208146103e957600080fd5b806364c92a461161019d578063715018a61161016c578063715018a614610361578063739808e51461036957806374c8d3771461037c5780637a3165df1461038557806383177db31461039857600080fd5b806364c92a46146102d557806367ddce61146103105780636d4c76b7146103235780636ea426c61461033657600080fd5b80634636bb98116101d95780634636bb98146102565780634ad37f2214610269578063568f9ce1146102a45780635c975abb146102b757600080fd5b8063057e709c1461020b57806317b72afc146102265780632158cef81461023b57806340554c3a14610243575b600080fd5b610213606481565b6040519081526020015b60405180910390f35b610239610234366004611cd6565b610602565b005b610213600181565b610239610251366004611d5c565b61077c565b610239610264366004611d88565b610820565b6005546006546007546008546102829392919060ff1684565b604080519485526020850193909352918301521515606082015260800161021d565b6102396102b2366004611daa565b610889565b600154600160a01b900460ff165b604051901515815260200161021d565b6102826102e3366004611daa565b600a6020526000908152604090206001810154600282015460038301546004909301549192909160ff1684565b61023961031e366004611dc3565b6108fa565b610239610331366004611dfe565b610a68565b610213610344366004611d88565b600460209081526000928352604080842090915290825290205481565b610239610b46565b6102c5610377366004611d88565b610b5a565b6102136103e881565b610239610393366004611e4a565b610c99565b6102c56103a6366004611d5c565b610f02565b6102136103b9366004611daa565b60009081526002602052604090206004015490565b610239610f50565b6102396103e4366004611edc565b610f60565b6102396103f7366004611d5c565b611364565b6001546040516001600160a01b03909116815260200161021d565b610213610425366004611f68565b6001600160a01b03166000908152600b602052604090205490565b61045361044e366004611daa565b611401565b60405161021d9493929190611f83565b610213610471366004611f68565b600b6020526000908152604090205481565b6104cf610491366004611d88565b6000918252600260208181526040808520938552600a9093019052912080546001820154928201546003830154600490930154919490929160ff1690565b6040805195865260208601949094529284019190915260608301521515608082015260a00161021d565b61055d610507366004611daa565b600090815260036020819052604090912080546001820154600283015493830154600484015460058501546006860154600790960154949793966001600160a01b0316959294919360ff91821693929190911690565b60405161021d989796959493929190612010565b61058461057f366004611daa565b611490565b60405161021d9a999897969594939291906120ad565b61021361157e565b6102396105b036600461211e565b61158e565b6102396105c3366004611daa565b6116cc565b6102396105d6366004611f68565b611738565b6105ee6105e9366004611daa565b6117b1565b60405161021d98979695949392919061214a565b61060a6118d1565b61061261192a565b60085460ff166106355760405163968741c560e01b815260040160405180910390fd5b60008581526002602052604090206003015460ff16156106685760405163024a9f8b60e01b815260040160405180910390fd5b60018311158061067a57506005548310155b15610698576040516309bde33960e01b815260040160405180910390fd5b6000858152600260208190526040909120868155600180820180546001600160a01b03191633179055429282019290925560038101805460ff191690921790915560646005820155600681016106ef838583612243565b5060078101805486919060ff1916600183600481111561071157610711611fdc565b021790555060088101849055600160098083018290558054909101905560408051858152426020820152339188917f83a9fb7367b3f877d18735aba97bf1280e0185b56f9da531ac9e20a2a00aaef4910160405180910390a3506107756001600055565b5050505050565b6107846118d1565b61078c61192a565b6000828152600360205260409020600581015460ff166107bf57604051635a26d5fd60e11b815260040160405180910390fd5b60028101546001600160a01b031633146107ec57604051631a27eac360e11b815260040160405180910390fd5b6001600160a01b0382166000908152600890910160205260409020805460ff1916600117905561081c6001600055565b5050565b610828611977565b600081116108745760405162461bcd60e51b8152602060048201526014602482015273125b9d985b1a59081858d8d95cdcc81b195d995b60621b60448201526064015b60405180910390fd5b60009182526002602052604090912060090155565b610891611977565b6000818152600260205260409020600381015460ff1661081c5760038101805460ff1916600117905560405182907f90eb5eea50b0730c8ab4282498308951eaebda25096ddf8037d2e1d1ee642228906108ee9042815260200190565b60405180910390a25050565b6109026118d1565b61090a61192a565b600085815260026020526040902060030154859060ff1661093e5760405163438af56d60e11b815260040160405180910390fd5b604080516020810188905290810186905260608101859052608081018490524260a082015260009060c00160408051808303601f19018152828252805160209182012060008b8152600280845284822060a0870186528c87528487018c81528787018c8152606089018c815260808a01868152878752600a850189528987209a518b55925160018b01559051938901939093559151600388015590516004968701805460ff19169115159190911790558c82528584528482209581018054835295909352928320819055835490945090929091610a1a83612319565b90915550506040805188815242602082015283918a917fdf36ccc27f7a2a06472977d098b4031ec3768368bfff6950b77ebdb152d1f0fd910160405180910390a35050506107756001600055565b600083815260026020526040902060030154839060ff16610a9c5760405163438af56d60e11b815260040160405180910390fd5b60008481526002602052604090206001015484906001600160a01b03163314610ad857604051631a27eac360e11b815260040160405180910390fd5b600085815260026020526040902060068101610af5858783612243565b506005810154604080518281526020810192909252429082015286907f60464cae9a270145119920f237a3868f7cc44238d877e044c866dff5fafea56c9060600160405180910390a2505050505050565b610b4e611977565b610b5860006119d1565b565b6000610b6461192a565b6000838152600260205260409020600381015460ff16610b975760405163438af56d60e11b815260040160405180910390fd5b6000838152600a8201602052604081208054909103610bc9576040516309bde33960e01b815260040160405180910390fd5b6000610be46005600201548360020154600560000154611a23565b9050600060056000015480610bfb57610bfb612332565b610c1385600801548560010154600560000154611a23565b84540960048401805460ff19168483149081179091559091508015610c4257610c3d886005611a99565b610c4e565b610c4e88600419611a99565b60408051821515815242602082015288918a917f1521519bb83ca7f4da69fb7b04962f9debf1a422425d9be5991c4d0dc52d3091910160405180910390a39450505050505b92915050565b610ca16118d1565b610ca961192a565b600085815260026020526040902060030154859060ff16610cdd5760405163438af56d60e11b815260040160405180910390fd5b60008581526003602052604090206005015460ff1615610d10576040516303e8922960e01b815260040160405180910390fd5b83610d2e57604051633b8f85f760e21b815260040160405180910390fd5b82610d4c576040516309bde33960e01b815260040160405180910390fd5b6000868152600260209081526040808320868452600a810190925282208054919290919003610daf5760405162461bcd60e51b815260206004820152600f60248201526e141c9bdbd9881b9bdd08199bdd5b99608a1b604482015260640161086b565b600481015460ff16610df85760405162461bcd60e51b8152602060048201526012602482015271141c9bdbd9881b9bdd081d995c9a599a595960721b604482015260640161086b565b600087815260036020819052604090912087815560018082018890556002820180546001600160a01b031916331790559181018a90554260048083019190915560058201805460ff199081168517909155600683018490556007830180549394899491939190921691908490811115610e7357610e73611fdc565b02179055506000898152600460208181526040808420928701805485529290915282208a9055805491610ea583612319565b9190505550610eb5896005611a99565b604080514281526020810189905233918b918b917f3ca74b39d0e51c9dd503cb3a8b05bfe3d83774cf7c6ba97c9aa41098e41dc73c910160405180910390a4505050506107756001600055565b600082815260036020526040812060028101546001600160a01b0384811691161480610f4857506001600160a01b038316600090815260088201602052604090205460ff165b949350505050565b610f58611977565b610b58611b48565b610f686118d1565b610f7061192a565b600086815260026020526040902060030154869060ff16610fa45760405163438af56d60e11b815260040160405180910390fd5b848314610fec5760405162461bcd60e51b8152602060048201526016602482015275082e4e4c2f2e640d8cadccee8d040dad2e6dac2e8c6d60531b604482015260640161086b565b6103e88511156110305760405162461bcd60e51b815260206004820152600f60248201526e426174636820746f6f206c6172676560881b604482015260640161086b565b6040805160208082018a905242828401526060808301899052835180840390910181526080909201835281519181019190912060008a81526002909252918120905b8581101561114d57600082600a01600089898581811061109457611094612348565b905060200201358152602001908152602001600020905080600001546000036110f15760405162461bcd60e51b815260206004820152600f60248201526e141c9bdbd9881b9bdd08199bdd5b99608a1b604482015260640161086b565b600481015460ff1661113a5760405162461bcd60e51b8152602060048201526012602482015271141c9bdbd9881b9bdd081d995c9a599a595960721b604482015260640161086b565b508061114581612319565b915050611072565b506000828152600a60205260409020611167818a8a611c20565b504260018083019190915560028201849055600382018b905560048201805460ff1916909117905560005b888110156112ea576000848b8b848181106111af576111af612348565b90506020020135836040516020016111da939291909283526020830191909152604082015260600190565b60408051601f1981840301815291815281516020928301206000818152600390935291209091508b8b8481811061121357611213612348565b602002919091013582555089898481811061123057611230612348565b60200291909101356001808401919091556002830180546001600160a01b03191633179055600383018f90554260048085019190915560058401805460ff199081168417909155600685018390556007850180548d95509093911691849081111561129d5761129d611fdc565b021790555060008d81526004602081905260408220908701548492906112c490879061235e565b8152602081019190915260400160002055508190506112e281612319565b915050611192565b5088889050826004016000828254611302919061235e565b9091555061131290508a89611a99565b604080518981524260208201528b9185917fd58ca03b81037089f2a9755d536053ddd5affc0f5c36c315ff7b1141d0eb5621910160405180910390a35050505061135c6001600055565b505050505050565b61136c6118d1565b61137461192a565b6000828152600360205260409020600581015460ff166113a757604051635a26d5fd60e11b815260040160405180910390fd5b60028101546001600160a01b031633146113d457604051631a27eac360e11b815260040160405180910390fd5b6001600160a01b0382166000908152600890910160205260409020805460ff1916905561081c6001600055565b6000818152600a60209081526040808320600181015460038201546004830154835485518188028101880190965280865260609796879687969586959094909360ff9091169286919083018282801561147957602002820191906000526020600020905b815481526020019060010190808311611465575b505050505093509450945094509450509193509193565b6002602081905260009182526040909120805460018201549282015460038301546004840154600585015460068601805495976001600160a01b031696949560ff9094169492939192916114e3906121be565b80601f016020809104026020016040519081016040528092919081815260200182805461150f906121be565b801561155c5780601f106115315761010080835404028352916020019161155c565b820191906000526020600020905b81548152906001019060200180831161153f57829003601f168201915b5050505060078301546008840154600990940154929360ff909116929091508a565b600061158960095490565b905090565b611596611977565b6003831180156115a65750600382115b6115f25760405162461bcd60e51b815260206004820152601860248201527f496e76616c6964207072696d6520706172616d65746572730000000000000000604482015260640161086b565b60018111801561160157508281105b6116415760405162461bcd60e51b815260206004820152601160248201527024b73b30b634b21033b2b732b930ba37b960791b604482015260640161086b565b60085460ff161561168a5760405162461bcd60e51b8152602060048201526013602482015272105b1c9958591e481a5b9a5d1a585b1a5e9959606a1b604482015260640161086b565b6040805160808101825284815260208101849052908101829052600160609091018190526005939093556006919091556007556008805460ff19169091179055565b6116d4611977565b6116dc611ba8565b60009081526003602081905260408220828155600181018390556002810180546001600160a01b03191690559081018290556004810182905560058101805460ff19908116909155600682019290925560070180549091169055565b611740611977565b6001600160a01b0381166117a55760405162461bcd60e51b815260206004820152602660248201527f4f776e61626c653a206e6577206f776e657220697320746865207a65726f206160448201526564647265737360d01b606482015260840161086b565b6117ae816119d1565b50565b600080600080600060606000806000600260008b815260200190815260200160002090508060010160009054906101000a90046001600160a01b031681600201548260030160009054906101000a900460ff1683600401548460050154856006018660070160009054906101000a900460ff168760080154828054611835906121be565b80601f0160208091040260200160405190810160405280929190818152602001828054611861906121be565b80156118ae5780601f10611883576101008083540402835291602001916118ae565b820191906000526020600020905b81548152906001019060200180831161189157829003601f168201915b505050505092509850985098509850985098509850985050919395975091939597565b6002600054036119235760405162461bcd60e51b815260206004820152601f60248201527f5265656e7472616e637947756172643a207265656e7472616e742063616c6c00604482015260640161086b565b6002600055565b600154600160a01b900460ff1615610b585760405162461bcd60e51b815260206004820152601060248201526f14185d5cd8589b194e881c185d5cd95960821b604482015260640161086b565b6001546001600160a01b03163314610b585760405162461bcd60e51b815260206004820181905260248201527f4f776e61626c653a2063616c6c6572206973206e6f7420746865206f776e6572604482015260640161086b565b600180546001600160a01b038381166001600160a01b0319831681179093556040519116919082907f8be0079c531659141344cd1fd0a4f28419497f9722a3daafe3b4186f6b6457e090600090a35050565b600081600103611a3557506000611a92565b6001611a418386612371565b94505b8315611a8f57611a55600285612371565b600103611a70578280611a6a57611a6a612332565b85820990505b8280611a7e57611a7e612332565b8586099450600184901c9350611a44565b90505b9392505050565b60008281526002602052604081206005810154909180841315611ada57611ad3848460050154611ac9919061235e565b60646103e8611bf8565b9050611af8565b611af5611ae685612393565b8460050154611ac991906123af565b90505b6005830181905560408051838152602081018390524281830152905186917f60464cae9a270145119920f237a3868f7cc44238d877e044c866dff5fafea56c919081900360600190a25050505050565b611b5061192a565b6001805460ff60a01b1916600160a01b1790557f62e78cea01bee320cd4e420270b5ea74000d11b0c9f74754ebdbfc544b05a258611b8b3390565b6040516001600160a01b03909116815260200160405180910390a1565b600154600160a01b900460ff16610b585760405162461bcd60e51b815260206004820152601460248201527314185d5cd8589b194e881b9bdd081c185d5cd95960621b604482015260640161086b565b600082841015611c09575081611a92565b81841115611c18575080611a92565b509192915050565b828054828255906000526020600020908101928215611c5b579160200282015b82811115611c5b578235825591602001919060010190611c40565b50611c67929150611c6b565b5090565b5b80821115611c675760008155600101611c6c565b600581106117ae57600080fd5b60008083601f840112611c9f57600080fd5b50813567ffffffffffffffff811115611cb757600080fd5b602083019150836020828501011115611ccf57600080fd5b9250929050565b600080600080600060808688031215611cee57600080fd5b853594506020860135611d0081611c80565b935060408601359250606086013567ffffffffffffffff811115611d2357600080fd5b611d2f88828901611c8d565b969995985093965092949392505050565b80356001600160a01b0381168114611d5757600080fd5b919050565b60008060408385031215611d6f57600080fd5b82359150611d7f60208401611d40565b90509250929050565b60008060408385031215611d9b57600080fd5b50508035926020909101359150565b600060208284031215611dbc57600080fd5b5035919050565b600080600080600060a08688031215611ddb57600080fd5b505083359560208501359550604085013594606081013594506080013592509050565b600080600060408486031215611e1357600080fd5b83359250602084013567ffffffffffffffff811115611e3157600080fd5b611e3d86828701611c8d565b9497909650939450505050565b600080600080600060a08688031215611e6257600080fd5b853594506020860135935060408601359250606086013591506080860135611e8981611c80565b809150509295509295909350565b60008083601f840112611ea957600080fd5b50813567ffffffffffffffff811115611ec157600080fd5b6020830191508360208260051b8501011115611ccf57600080fd5b60008060008060008060808789031215611ef557600080fd5b86359550602087013567ffffffffffffffff80821115611f1457600080fd5b611f208a838b01611e97565b90975095506040890135915080821115611f3957600080fd5b50611f4689828a01611e97565b9094509250506060870135611f5a81611c80565b809150509295509295509295565b600060208284031215611f7a57600080fd5b611a9282611d40565b6080808252855190820181905260009060209060a0840190828901845b82811015611fbc57815184529284019290840190600101611fa0565b505050908301959095525060408101929092521515606090910152919050565b634e487b7160e01b600052602160045260246000fd5b600581106117ae57634e487b7160e01b600052602160045260246000fd5b888152602081018890526001600160a01b0387166040820152606081018690526080810185905283151560a082015260c08101839052610100810161205483611ff2565b8260e08301529998505050505050505050565b6000815180845260005b8181101561208d57602081850181015186830182015201612071565b506000602082860101526020601f19601f83011685010191505092915050565b60006101408c835260018060a01b038c1660208401528a604084015289151560608401528860808401528760a08401528060c08401526120ef81840188612067565b9150506120fb85611ff2565b8460e083015283610100830152826101208301529b9a5050505050505050505050565b60008060006060848603121561213357600080fd5b505081359360208301359350604090920135919050565b600061010060018060a01b038b16835289602084015288151560408401528760608401528660808401528060a084015261218681840187612067565b91505061219284611ff2565b60c082019390935260e001529695505050505050565b634e487b7160e01b600052604160045260246000fd5b600181811c908216806121d257607f821691505b6020821081036121f257634e487b7160e01b600052602260045260246000fd5b50919050565b601f82111561223e57600081815260208120601f850160051c8101602086101561221f5750805b601f850160051c820191505b8181101561135c5782815560010161222b565b505050565b67ffffffffffffffff83111561225b5761225b6121a8565b61226f8361226983546121be565b836121f8565b6000601f8411600181146122a3576000851561228b5750838201355b600019600387901b1c1916600186901b178355610775565b600083815260209020601f19861690835b828110156122d457868501358255602094850194600190920191016122b4565b50868210156122f15760001960f88860031b161c19848701351681555b505060018560011b0183555050505050565b634e487b7160e01b600052601160045260246000fd5b60006001820161232b5761232b612303565b5060010190565b634e487b7160e01b600052601260045260246000fd5b634e487b7160e01b600052603260045260246000fd5b80820180821115610c9357610c93612303565b60008261238e57634e487b7160e01b600052601260045260246000fd5b500690565b6000600160ff1b82016123a8576123a8612303565b5060000390565b81810381811115610c9357610c9361230356fea2646970667358221220886ca25a9cbf1b21096ec9e9049f0c6eb9d0fa6607214b219b23d5cf626a683a64736f6c63430008130033",
  "immutableReferences": {},
  "source": "// SPDX-License-Identifier: MIT\r\npragma solidity ^0.8.19;\r\n\r\nimport \"@openzeppelin/contracts/security/ReentrancyGuard.sol\";\r\nimport \"@openzeppelin/contracts/access/Ownable.sol\";\r\nimport \"@openzeppelin/contracts/security/Pausable.sol\";\r\nimport \"@openzeppelin/contracts/utils/Counters.sol\";\r\n\r\n/**\r\n * @title IoTQuantumZKPStorage\r\n * @dev Enhanced storage system with Schnorr ZKP verification\r\n */\r\ncontract IoTQuantumZKPStorage is ReentrancyGuard, Ownable, Pausable {\r\n    using Counters for Counters.Counter;\r\n\r\n    // Custom errors\r\n    error DeviceAlreadyRegistered();\r\n    error DeviceNotRegistered();\r\n    error DataAlreadyExists();\r\n    error InvalidDataHash();\r\n    error InvalidProof();\r\n    error UnauthorizedAccess();\r\n    error DataNotFound();\r\n    error InvalidDeviceSignature();\r\n    error InvalidThreshold();\r\n    error InvalidSchnorrParameters();\r\n    error ProofVerificationFailed();\r\n\r\n    // Schnorr group parameters\r\n    struct SchnorrParams {\r\n        uint256 p;  // Prime modulus\r\n        uint256 q;  // Subgroup order\r\n        uint256 g;  // Generator\r\n        bool isInitialized;\r\n    }\r\n\r\n    // Schnorr proof structure\r\n    struct SchnorrProof {\r\n        uint256 commitment;    // R = g^k mod p\r\n        uint256 challenge;     // e = H(m, R, y)\r\n        uint256 response;      // s = k - xe mod q\r\n        bytes32 messageHash;   // Hash of the original message\r\n        bool isVerified;       // Verification status\r\n    }\r\n\r\n    // IoT Device structure\r\n    struct IoTDevice {\r\n        bytes32 deviceId;          // Unique device identifier\r\n        address owner;             // Device owner\r\n        uint256 registrationTime;  // Registration timestamp\r\n        bool isActive;             // Device status\r\n        uint256 dataCount;         // Number of data points\r\n        uint256 trustScore;        // Device trust score\r\n        string metadata;           // Device metadata (JSON)\r\n        DeviceType deviceType;     // Type of IoT device\r\n        uint256 publicKey;         // Schnorr public key\r\n        uint256 accessLevel;       // Device access level\r\n        mapping(bytes32 => SchnorrProof) proofs;  // Device's proofs\r\n    }\r\n\r\n    // Protected data structure\r\n    struct ProtectedData {\r\n        bytes32 dataHash;          // Hash of the encrypted data\r\n        bytes32 zkProof;          // Zero-knowledge proof reference\r\n        address owner;             // Data owner\r\n        bytes32 deviceId;          // Source device ID\r\n        uint256 timestamp;         // Storage timestamp\r\n        bool isValid;              // Validity flag\r\n        uint256 accessLevel;       // Access level\r\n        DataType dataType;         // Type of data\r\n        mapping(address => bool) authorizedUsers;  // Access permissions\r\n    }\r\n\r\n    // Device type enumeration\r\n    enum DeviceType {\r\n        SENSOR,\r\n        ACTUATOR,\r\n        GATEWAY,\r\n        EDGE_DEVICE,\r\n        CUSTOM\r\n    }\r\n\r\n    // Data type enumeration\r\n    enum DataType {\r\n        TELEMETRY,\r\n        CONFIGURATION,\r\n        DIAGNOSTIC,\r\n        SECURITY,\r\n        CUSTOM\r\n    }\r\n\r\n    // State variables\r\n    mapping(bytes32 => IoTDevice) public devices;\r\n    mapping(bytes32 => ProtectedData) private dataStore;\r\n    mapping(bytes32 => mapping(uint256 => bytes32)) public deviceDataHistory;\r\n    \r\n    SchnorrParams public schnorrParams;\r\n    Counters.Counter private _deviceCount;\r\n    \r\n    // Constants\r\n    uint256 public constant MIN_TRUST_SCORE = 100;\r\n    uint256 public constant MAX_TRUST_SCORE = 1000;\r\n    uint256 public constant BATCH_SIZE_LIMIT = 1000;\r\n    uint256 public constant DEFAULT_ACCESS_LEVEL = 1;\r\n    \r\n    // Events\r\n    event DeviceRegistered(\r\n        bytes32 indexed deviceId,\r\n        address indexed owner,\r\n        uint256 publicKey,\r\n        uint256 timestamp\r\n    );\r\n    \r\n    event DeviceDeactivated(\r\n        bytes32 indexed deviceId,\r\n        uint256 timestamp\r\n    );\r\n    \r\n    event DataStored(\r\n        bytes32 indexed dataId,\r\n        bytes32 indexed deviceId,\r\n        address indexed owner,\r\n        uint256 timestamp,\r\n        bytes32 dataHash\r\n    );\r\n    \r\n    event BatchProcessed(\r\n        bytes32 indexed batchId,\r\n        bytes32 indexed deviceId,\r\n        uint256 count,\r\n        uint256 timestamp\r\n    );\r\n    \r\n    event ProofSubmitted(\r\n        bytes32 indexed deviceId,\r\n        bytes32 indexed proofId,\r\n        uint256 commitment,\r\n        uint256 timestamp\r\n    );\r\n    \r\n    event ProofVerified(\r\n        bytes32 indexed deviceId,\r\n        bytes32 indexed proofId,\r\n        bool success,\r\n        uint256 timestamp\r\n    );\r\n\r\n    event DeviceTrustScoreUpdated(\r\n        bytes32 indexed deviceId,\r\n        uint256 oldScore,\r\n        uint256 newScore,\r\n        uint256 timestamp\r\n    );\r\n\r\n    // Modifiers\r\n    modifier onlyRegisteredDevice(bytes32 deviceId) {\r\n        if (!devices[deviceId].isActive) {\r\n            revert DeviceNotRegistered();\r\n        }\r\n        _;\r\n    }\r\n\r\n    modifier onlyDeviceOwner(bytes32 deviceId) {\r\n        if (devices[deviceId].owner != msg.sender) {\r\n            revert UnauthorizedAccess();\r\n        }\r\n        _;\r\n    }\r\n\r\n    /**\r\n     * @dev Initialize Schnorr parameters\r\n     */\r\n    function initializeSchnorrParams(\r\n        uint256 p,\r\n        uint256 q,\r\n        uint256 g\r\n    ) external onlyOwner {\r\n        require(p > 3 && q > 3, \"Invalid prime parameters\");\r\n        require(g > 1 && g < p, \"Invalid generator\");\r\n        require(!schnorrParams.isInitialized, \"Already initialized\");\r\n        \r\n        schnorrParams = SchnorrParams({\r\n            p: p,\r\n            q: q,\r\n            g: g,\r\n            isInitialized: true\r\n        });\r\n    }\r\n\r\n    /**\r\n     * @dev Register new IoT device with ZKP capability\r\n     */\r\n    function registerDevice(\r\n        bytes32 deviceId,\r\n        DeviceType deviceType,\r\n        uint256 publicKey,\r\n        string calldata metadata\r\n    ) external nonReentrant whenNotPaused {\r\n        if (!schnorrParams.isInitialized) revert InvalidSchnorrParameters();\r\n        if (devices[deviceId].isActive) revert DeviceAlreadyRegistered();\r\n        if (publicKey <= 1 || publicKey >= schnorrParams.p) revert InvalidProof();\r\n\r\n        IoTDevice storage newDevice = devices[deviceId];\r\n        newDevice.deviceId = deviceId;\r\n        newDevice.owner = msg.sender;\r\n        newDevice.registrationTime = block.timestamp;\r\n        newDevice.isActive = true;\r\n        newDevice.trustScore = MIN_TRUST_SCORE;\r\n        newDevice.metadata = metadata;\r\n        newDevice.deviceType = deviceType;\r\n        newDevice.publicKey = publicKey;\r\n        newDevice.accessLevel = DEFAULT_ACCESS_LEVEL;\r\n\r\n        _deviceCount.increment();\r\n\r\n        emit DeviceRegistered(\r\n            deviceId,\r\n            msg.sender,\r\n            publicKey,\r\n            block.timestamp\r\n        );\r\n    }\r\n\r\n    /**\r\n     * @dev Store IoT data with proofs\r\n     */\r\n    function storeIoTData(\r\n        bytes32 deviceId,\r\n        bytes32 dataId,\r\n        bytes32 dataHash,\r\n        bytes32 proof,\r\n        DataType dataType\r\n    ) external nonReentrant whenNotPaused onlyRegisteredDevice(deviceId) {\r\n        if (dataStore[dataId].isValid) revert DataAlreadyExists();\r\n        if (dataHash == bytes32(0)) revert InvalidDataHash();\r\n        if (proof == bytes32(0)) revert InvalidProof();\r\n\r\n        IoTDevice storage device = devices[deviceId];\r\n        SchnorrProof storage proofData = device.proofs[proof];\r\n        \r\n        // Additional validation\r\n        require(proofData.commitment != 0, \"Proof not found\");\r\n        require(proofData.isVerified, \"Proof not verified\");\r\n\r\n        ProtectedData storage newData = dataStore[dataId];\r\n        newData.dataHash = dataHash;\r\n        newData.zkProof = proof;\r\n        newData.owner = msg.sender;\r\n        newData.deviceId = deviceId;\r\n        newData.timestamp = block.timestamp;\r\n        newData.isValid = true;\r\n        newData.accessLevel = 1;\r\n        newData.dataType = dataType;\r\n\r\n        deviceDataHistory[deviceId][device.dataCount] = dataId;\r\n        device.dataCount++;\r\n\r\n        _updateDeviceTrustScore(deviceId, 5);\r\n\r\n        emit DataStored(\r\n            dataId,\r\n            deviceId,\r\n            msg.sender,\r\n            block.timestamp,\r\n            dataHash\r\n        );\r\n    }\r\n\r\n    /**\r\n     * @dev Submit Schnorr ZKP for verification\r\n     */\r\n    function submitProof(\r\n        bytes32 deviceId,\r\n        uint256 commitment,\r\n        uint256 challenge,\r\n        uint256 response,\r\n        bytes32 messageHash\r\n    ) external nonReentrant whenNotPaused onlyRegisteredDevice(deviceId) {\r\n        bytes32 proofId = keccak256(\r\n            abi.encodePacked(\r\n                deviceId,\r\n                commitment,\r\n                challenge,\r\n                response,\r\n                block.timestamp\r\n            )\r\n        );\r\n\r\n        IoTDevice storage device = devices[deviceId];\r\n        device.proofs[proofId] = SchnorrProof({\r\n            commitment: commitment,\r\n            challenge: challenge,\r\n            response: response,\r\n            messageHash: messageHash,\r\n            isVerified: false\r\n        });\r\n\r\n        deviceDataHistory[deviceId][device.dataCount] = proofId;\r\n        device.dataCount++;\r\n\r\n        emit ProofSubmitted(\r\n            deviceId,\r\n            proofId,\r\n            commitment,\r\n            block.timestamp\r\n        );\r\n    }\r\n\r\n    /**\r\n     * @dev Verify Schnorr ZKP\r\n     */\r\n    function verifyProof(\r\n        bytes32 deviceId,\r\n        bytes32 proofId\r\n    ) external whenNotPaused returns (bool) {\r\n        IoTDevice storage device = devices[deviceId];\r\n        if (!device.isActive) revert DeviceNotRegistered();\r\n\r\n        SchnorrProof storage proof = device.proofs[proofId];\r\n        if (proof.commitment == 0) revert InvalidProof();\r\n\r\n        uint256 gs = modExp(\r\n            schnorrParams.g,\r\n            proof.response,\r\n            schnorrParams.p\r\n        );\r\n\r\n        uint256 rye = mulmod(\r\n            proof.commitment,\r\n            modExp(\r\n                device.publicKey,\r\n                proof.challenge,\r\n                schnorrParams.p\r\n            ),\r\n            schnorrParams.p\r\n        );\r\n\r\n        bool isValid = (gs == rye);\r\n        proof.isVerified = isValid;\r\n\r\n        if (isValid) {\r\n            _updateDeviceTrustScore(deviceId, 5);\r\n        } else {\r\n            _updateDeviceTrustScore(deviceId, -5);\r\n        }\r\n\r\n        emit ProofVerified(\r\n            deviceId,\r\n            proofId,\r\n            isValid,\r\n            block.timestamp\r\n        );\r\n\r\n        return isValid;\r\n    }\r\n\r\n    /**\r\n     * @dev Get proof details\r\n     */\r\n    function getProofDetails(\r\n        bytes32 deviceId,\r\n        bytes32 proofId\r\n    ) external view returns (\r\n        uint256 commitment,\r\n        uint256 challenge,\r\n        uint256 response,\r\n        bytes32 messageHash,\r\n        bool isVerified\r\n    ) {\r\n        SchnorrProof storage proof = devices[deviceId].proofs[proofId];\r\n        return (\r\n            proof.commitment,\r\n            proof.challenge,\r\n            proof.response,\r\n            proof.messageHash,\r\n            proof.isVerified\r\n        );\r\n    }\r\n\r\n    /**\r\n     * @dev Get device details\r\n     */\r\n    function getDeviceDetails(bytes32 deviceId) external view returns (\r\n        address owner,\r\n        uint256 registrationTime,\r\n        bool isActive,\r\n        uint256 dataCount,\r\n        uint256 trustScore,\r\n        string memory metadata,\r\n        DeviceType deviceType,\r\n        uint256 publicKey\r\n    ) {\r\n        IoTDevice storage device = devices[deviceId];\r\n        return (\r\n            device.owner,\r\n            device.registrationTime,\r\n            device.isActive,\r\n            device.dataCount,\r\n            device.trustScore,\r\n            device.metadata,\r\n            device.deviceType,\r\n            device.publicKey\r\n        );\r\n    }\r\n\r\n    /**\r\n     * @dev Update device trust score\r\n     */\r\n    function _updateDeviceTrustScore(bytes32 deviceId, int256 points) internal {\r\n        IoTDevice storage device = devices[deviceId];\r\n        uint256 oldScore = device.trustScore;\r\n        uint256 newScore;\r\n        \r\n        if (points > 0) {\r\n            newScore = bound(\r\n                device.trustScore + uint256(points),\r\n                MIN_TRUST_SCORE,\r\n                MAX_TRUST_SCORE\r\n            );\r\n        } else {\r\n            newScore = bound(\r\n                device.trustScore - uint256(-points),\r\n                MIN_TRUST_SCORE,\r\n                MAX_TRUST_SCORE\r\n            );\r\n        }\r\n        \r\n        device.trustScore = newScore;\r\n        \r\n        emit DeviceTrustScoreUpdated(\r\n            deviceId,\r\n            oldScore,\r\n            newScore,\r\n            block.timestamp\r\n        );\r\n    }\r\n\r\n    /**\r\n     * @dev Modular exponentiation helper\r\n     */\r\n    function modExp(\r\n        uint256 base,\r\n        uint256 exponent,\r\n        uint256 modulus\r\n    ) internal pure returns (uint256) {\r\n        if (modulus == 1) return 0;\r\n        \r\n        uint256 result = 1;\r\n        base = base % modulus;\r\n        \r\n        while (exponent > 0) {\r\n            if (exponent % 2 == 1) {\r\n                result = mulmod(result, base, modulus);\r\n            }\r\n            base = mulmod(base, base, modulus);\r\n            exponent >>= 1;\r\n        }\r\n        return result;\r\n    }\r\n\r\n    /**\r\n     * @dev Bound value between min and max\r\n     */\r\n    function bound(\r\n        uint256 value,\r\n        uint256 min,\r\n        uint256 max\r\n    ) internal pure returns (uint256) {\r\n        if (value < min) return min;\r\n        if (value > max) return max;\r\n        return value;\r\n    }\r\n\r\n    /**\r\n     * @dev Emergency pause\r\n     */\r\n    function pause() external onlyOwner {\r\n        _pause();\r\n    }\r\n\r\n    /**\r\n     * @dev Resume operations\r\n     */\r\n    // Batch data structure\r\n    struct DataBatch {\r\n        bytes32[] dataHashes;\r\n        uint256 timestamp;\r\n        bytes32 batchId;\r\n        bytes32 deviceId;\r\n        bool processed;\r\n    }\r\n\r\n    // Additional state variables\r\n    mapping(bytes32 => DataBatch) public dataBatches;\r\n    mapping(address => uint256) public userTrustScores;\r\n    \r\n    /**\r\n     * @dev Store batch of IoT data\r\n     * @param deviceId Source device ID\r\n     * @param dataHashes Array of data hashes\r\n     * @param proofs Array of proof IDs\r\n     * @param dataType Type of data being stored\r\n     */\r\n    function storeBatchData(\r\n        bytes32 deviceId,\r\n        bytes32[] calldata dataHashes,\r\n        bytes32[] calldata proofs,\r\n        DataType dataType\r\n    ) external nonReentrant whenNotPaused onlyRegisteredDevice(deviceId) {\r\n        require(dataHashes.length == proofs.length, \"Arrays length mismatch\");\r\n        require(dataHashes.length <= BATCH_SIZE_LIMIT, \"Batch too large\");\r\n\r\n        bytes32 batchId = keccak256(\r\n            abi.encodePacked(deviceId, block.timestamp, dataHashes.length)\r\n        );\r\n\r\n        IoTDevice storage device = devices[deviceId];\r\n        \r\n        // Verify all proofs first\r\n        for (uint256 i = 0; i < proofs.length; i++) {\r\n            SchnorrProof storage proof = device.proofs[proofs[i]];\r\n            require(proof.commitment != 0, \"Proof not found\");\r\n            require(proof.isVerified, \"Proof not verified\");\r\n        }\r\n\r\n        // Store batch metadata\r\n        DataBatch storage batch = dataBatches[batchId];\r\n        batch.dataHashes = dataHashes;\r\n        batch.timestamp = block.timestamp;\r\n        batch.batchId = batchId;\r\n        batch.deviceId = deviceId;\r\n        batch.processed = true;\r\n\r\n        // Store individual data entries\r\n        for (uint256 i = 0; i < dataHashes.length; i++) {\r\n            bytes32 dataId = keccak256(\r\n                abi.encodePacked(batchId, dataHashes[i], i)\r\n            );\r\n\r\n            ProtectedData storage newData = dataStore[dataId];\r\n            newData.dataHash = dataHashes[i];\r\n            newData.zkProof = proofs[i];\r\n            newData.owner = msg.sender;\r\n            newData.deviceId = deviceId;\r\n            newData.timestamp = block.timestamp;\r\n            newData.isValid = true;\r\n            newData.accessLevel = 1;\r\n            newData.dataType = dataType;\r\n\r\n            deviceDataHistory[deviceId][device.dataCount + i] = dataId;\r\n        }\r\n\r\n        // Update device data count\r\n        device.dataCount += dataHashes.length;\r\n\r\n        // Update trust score\r\n        _updateDeviceTrustScore(deviceId, int256(dataHashes.length));\r\n\r\n        emit BatchProcessed(\r\n            batchId,\r\n            deviceId,\r\n            dataHashes.length,\r\n            block.timestamp\r\n        );\r\n    }\r\n\r\n    /**\r\n     * @dev Get batch details\r\n     * @param batchId Batch identifier\r\n     */\r\n    function getBatchDetails(\r\n        bytes32 batchId\r\n    ) external view returns (\r\n        bytes32[] memory dataHashes,\r\n        uint256 timestamp,\r\n        bytes32 deviceId,\r\n        bool processed\r\n    ) {\r\n        DataBatch storage batch = dataBatches[batchId];\r\n        return (\r\n            batch.dataHashes,\r\n            batch.timestamp,\r\n            batch.deviceId,\r\n            batch.processed\r\n        );\r\n    }\r\n\r\n    /**\r\n     * @dev Grant access to data\r\n     * @param dataId Data identifier\r\n     * @param user User address to grant access\r\n     */\r\n    function grantAccess(\r\n        bytes32 dataId,\r\n        address user\r\n    ) external nonReentrant whenNotPaused {\r\n        ProtectedData storage data = dataStore[dataId];\r\n        if (!data.isValid) revert DataNotFound();\r\n        if (data.owner != msg.sender) revert UnauthorizedAccess();\r\n        \r\n        data.authorizedUsers[user] = true;\r\n    }\r\n\r\n    /**\r\n     * @dev Revoke access to data\r\n     * @param dataId Data identifier\r\n     * @param user User address to revoke access\r\n     */\r\n    function revokeAccess(\r\n        bytes32 dataId,\r\n        address user\r\n    ) external nonReentrant whenNotPaused {\r\n        ProtectedData storage data = dataStore[dataId];\r\n        if (!data.isValid) revert DataNotFound();\r\n        if (data.owner != msg.sender) revert UnauthorizedAccess();\r\n        \r\n        data.authorizedUsers[user] = false;\r\n    }\r\n\r\n    /**\r\n     * @dev Check if user has access to data\r\n     * @param dataId Data identifier\r\n     * @param user User address to check\r\n     */\r\n    function hasAccess(\r\n        bytes32 dataId,\r\n        address user\r\n    ) external view returns (bool) {\r\n        ProtectedData storage data = dataStore[dataId];\r\n        return data.owner == user || data.authorizedUsers[user];\r\n    }\r\n\r\n    /**\r\n     * @dev Get data details\r\n     * @param dataId Data identifier\r\n     */\r\n    function getDataDetails(\r\n        bytes32 dataId\r\n    ) external view returns (\r\n        bytes32 dataHash,\r\n        bytes32 zkProof,\r\n        address owner,\r\n        bytes32 deviceId,\r\n        uint256 timestamp,\r\n        bool isValid,\r\n        uint256 accessLevel,\r\n        DataType dataType\r\n    ) {\r\n        ProtectedData storage data = dataStore[dataId];\r\n        return (\r\n            data.dataHash,\r\n            data.zkProof,\r\n            data.owner,\r\n            data.deviceId,\r\n            data.timestamp,\r\n            data.isValid,\r\n            data.accessLevel,\r\n            data.dataType\r\n        );\r\n    }\r\n\r\n    /**\r\n     * @dev Update user trust score\r\n     * @param user User address\r\n     * @param points Points to add\r\n     */\r\n    function _updateUserTrustScore(address user, uint256 points) internal {\r\n        uint256 currentScore = userTrustScores[user];\r\n        userTrustScores[user] = bound(\r\n            currentScore + points,\r\n            MIN_TRUST_SCORE,\r\n            MAX_TRUST_SCORE\r\n        );\r\n    }\r\n\r\n    /**\r\n     * @dev Get user trust score\r\n     * @param user User address\r\n     */\r\n    function getUserTrustScore(address user) external view returns (uint256) {\r\n        return userTrustScores[user];\r\n    }\r\n\r\n    /**\r\n     * @dev Set device access level\r\n     * @param deviceId Device identifier\r\n     * @param accessLevel New access level\r\n     */\r\n    function setDeviceAccessLevel(\r\n        bytes32 deviceId,\r\n        uint256 accessLevel\r\n    ) external onlyOwner {\r\n        require(accessLevel > 0, \"Invalid access level\");\r\n        devices[deviceId].accessLevel = accessLevel;\r\n    }\r\n\r\n     /**\r\n * @dev Update IoT device metadata\r\n */\r\nfunction updateDeviceMetadata(bytes32 deviceId, string calldata newMetadata) \r\n    external \r\n    onlyRegisteredDevice(deviceId) \r\n    onlyDeviceOwner(deviceId) \r\n{\r\n    IoTDevice storage device = devices[deviceId];\r\n    device.metadata = newMetadata;\r\n\r\n    emit DeviceTrustScoreUpdated(\r\n        deviceId,\r\n        device.trustScore,\r\n        device.trustScore, // No change in trust score for metadata update\r\n        block.timestamp\r\n    );\r\n}\r\n\r\n\r\n/**\r\n * @dev Activate an existing device\r\n */\r\nfunction activateDevice(bytes32 deviceId) external onlyOwner {\r\n    IoTDevice storage device = devices[deviceId];\r\n    if (!device.isActive) {\r\n        device.isActive = true;\r\n        emit DeviceDeactivated(deviceId, block.timestamp);  // Optional: emit event if needed\r\n    }\r\n}\r\n\r\n\r\n\r\n\r\n    /**\r\n     * @dev Emergency data deletion\r\n     * @param dataId Data identifier\r\n     */\r\n    function emergencyDeleteData(\r\n        bytes32 dataId\r\n    ) external onlyOwner whenPaused {\r\n        delete dataStore[dataId];\r\n    }\r\n\r\n    /**\r\n     * @dev Get total registered devices\r\n     */\r\n    function getTotalDevices() external view returns (uint256) {\r\n        return _deviceCount.current();\r\n    }\r\n\r\n    /**\r\n     * @dev Get total processed batches for device\r\n     * @param deviceId Device identifier\r\n     */\r\n    function getDeviceBatchCount(\r\n        bytes32 deviceId\r\n    ) external view returns (uint256) {\r\n        return devices[deviceId].dataCount;\r\n    }\r\n}\r\n\r\n\r\n\r\n",
  "sourcePath": "C:\\Users\\kmkho\\OneDrive\\ \\paper20\\iot\\contracts\\IoTQuantumZKPStorage.sol",
  "compiler": {
    "name": "solc",
    "version": "0.8.19+commit.7dd6d404.Emscripten.clang"
  },
  "schemaVersion": "3.4.16",
  "updatedAt": "2025-02-10T23:03:47.917Z",
  "networkType": "ethereum",
  "devdoc": {
    "details": "Enhanced storage system with Schnorr ZKP verification",
    "events": {
      "Paused(address)": {
        "details": "Emitted when the pause is triggered by `account`."
      },
      "Unpaused(address)": {
        "details": "Emitted when the pause is lifted by `account`."
      }
    },
    "kind": "dev",
    "methods": {
      "activateDevice(bytes32)": {
        "details": "Activate an existing device"
      },
      "emergencyDeleteData(bytes32)": {
        "details": "Emergency data deletion",
        "params": {
          "dataId": "Data identifier"
        }
      },
      "getBatchDetails(bytes32)": {
        "details": "Get batch details",
        "params": {
          "batchId": "Batch identifier"
        }
      },
      "getDataDetails(bytes32)": {
        "details": "Get data details",
        "params": {
          "dataId": "Data identifier"
        }
      },
      "getDeviceBatchCount(bytes32)": {
        "details": "Get total processed batches for device",
        "params": {
          "deviceId": "Device identifier"
        }
      },
      "getDeviceDetails(bytes32)": {
        "details": "Get device details"
      },
      "getProofDetails(bytes32,bytes32)": {
        "details": "Get proof details"
      },
      "getTotalDevices()": {
        "details": "Get total registered devices"
      },
      "getUserTrustScore(address)": {
        "details": "Get user trust score",
        "params": {
          "user": "User address"
        }
      },
      "grantAccess(bytes32,address)": {
        "details": "Grant access to data",
        "params": {
          "dataId": "Data identifier",
          "user": "User address to grant access"
        }
      },
      "hasAccess(bytes32,address)": {
        "details": "Check if user has access to data",
        "params": {
          "dataId": "Data identifier",
          "user": "User address to check"
        }
      },
      "initializeSchnorrParams(uint256,uint256,uint256)": {
        "details": "Initialize Schnorr parameters"
      },
      "owner()": {
        "details": "Returns the address of the current owner."
      },
      "pause()": {
        "details": "Emergency pause"
      },
      "paused()": {
        "details": "Returns true if the contract is paused, and false otherwise."
      },
      "registerDevice(bytes32,uint8,uint256,string)": {
        "details": "Register new IoT device with ZKP capability"
      },
      "renounceOwnership()": {
        "details": "Leaves the contract without owner. It will not be possible to call `onlyOwner` functions. Can only be called by the current owner. NOTE: Renouncing ownership will leave the contract without an owner, thereby disabling any functionality that is only available to the owner."
      },
      "revokeAccess(bytes32,address)": {
        "details": "Revoke access to data",
        "params": {
          "dataId": "Data identifier",
          "user": "User address to revoke access"
        }
      },
      "setDeviceAccessLevel(bytes32,uint256)": {
        "details": "Set device access level",
        "params": {
          "accessLevel": "New access level",
          "deviceId": "Device identifier"
        }
      },
      "storeBatchData(bytes32,bytes32[],bytes32[],uint8)": {
        "details": "Store batch of IoT data",
        "params": {
          "dataHashes": "Array of data hashes",
          "dataType": "Type of data being stored",
          "deviceId": "Source device ID",
          "proofs": "Array of proof IDs"
        }
      },
      "storeIoTData(bytes32,bytes32,bytes32,bytes32,uint8)": {
        "details": "Store IoT data with proofs"
      },
      "submitProof(bytes32,uint256,uint256,uint256,bytes32)": {
        "details": "Submit Schnorr ZKP for verification"
      },
      "transferOwnership(address)": {
        "details": "Transfers ownership of the contract to a new account (`newOwner`). Can only be called by the current owner."
      },
      "updateDeviceMetadata(bytes32,string)": {
        "details": "Update IoT device metadata"
      },
      "verifyProof(bytes32,bytes32)": {
        "details": "Verify Schnorr ZKP"
      }
    },
    "title": "IoTQuantumZKPStorage",
    "version": 1
  },
  "userdoc": {
    "kind": "user",
    "methods": {},
    "version": 1
  }
}